{
  "contractName": "SmartCurrency",
  "abi": [
    {
      "constant": true,
      "inputs": [
        {
          "name": "",
          "type": "address"
        }
      ],
      "name": "last_msg_index",
      "outputs": [
        {
          "name": "",
          "type": "uint256"
        }
      ],
      "payable": false,
      "stateMutability": "view",
      "type": "function"
    },
    {
      "constant": true,
      "inputs": [
        {
          "name": "",
          "type": "address"
        }
      ],
      "name": "keys",
      "outputs": [
        {
          "name": "key",
          "type": "string"
        },
        {
          "name": "key_type",
          "type": "string"
        }
      ],
      "payable": false,
      "stateMutability": "view",
      "type": "function"
    },
    {
      "constant": true,
      "inputs": [
        {
          "name": "",
          "type": "address"
        },
        {
          "name": "",
          "type": "uint256"
        }
      ],
      "name": "messages",
      "outputs": [
        {
          "name": "from",
          "type": "address"
        },
        {
          "name": "text",
          "type": "string"
        },
        {
          "name": "time",
          "type": "uint256"
        }
      ],
      "payable": false,
      "stateMutability": "view",
      "type": "function"
    },
    {
      "constant": true,
      "inputs": [],
      "name": "message_staling_period",
      "outputs": [
        {
          "name": "",
          "type": "uint256"
        }
      ],
      "payable": false,
      "stateMutability": "view",
      "type": "function"
    },
    {
      "anonymous": false,
      "inputs": [
        {
          "indexed": true,
          "name": "_sender",
          "type": "address"
        },
        {
          "indexed": true,
          "name": "_receiver",
          "type": "address"
        },
        {
          "indexed": false,
          "name": "_time",
          "type": "uint256"
        },
        {
          "indexed": false,
          "name": "message",
          "type": "string"
        }
      ],
      "name": "Message",
      "type": "event"
    },
    {
      "anonymous": false,
      "inputs": [
        {
          "indexed": true,
          "name": "_sender",
          "type": "address"
        },
        {
          "indexed": false,
          "name": "_key",
          "type": "string"
        },
        {
          "indexed": false,
          "name": "_keytype",
          "type": "string"
        }
      ],
      "name": "PublicKeyUpdated",
      "type": "event"
    },
    {
      "constant": false,
      "inputs": [
        {
          "name": "_to",
          "type": "address"
        },
        {
          "name": "_text",
          "type": "string"
        }
      ],
      "name": "sendMessage",
      "outputs": [],
      "payable": false,
      "stateMutability": "nonpayable",
      "type": "function"
    },
    {
      "constant": true,
      "inputs": [
        {
          "name": "_owner",
          "type": "address"
        }
      ],
      "name": "lastIndex",
      "outputs": [
        {
          "name": "",
          "type": "uint256"
        }
      ],
      "payable": false,
      "stateMutability": "view",
      "type": "function"
    },
    {
      "constant": true,
      "inputs": [
        {
          "name": "_who",
          "type": "address"
        }
      ],
      "name": "getLastMessage",
      "outputs": [
        {
          "name": "",
          "type": "address"
        },
        {
          "name": "",
          "type": "string"
        },
        {
          "name": "",
          "type": "uint256"
        }
      ],
      "payable": false,
      "stateMutability": "view",
      "type": "function"
    },
    {
      "constant": true,
      "inputs": [
        {
          "name": "_who",
          "type": "address"
        },
        {
          "name": "_index",
          "type": "uint256"
        }
      ],
      "name": "getMessageByIndex",
      "outputs": [
        {
          "name": "",
          "type": "address"
        },
        {
          "name": "",
          "type": "string"
        },
        {
          "name": "",
          "type": "uint256"
        }
      ],
      "payable": false,
      "stateMutability": "view",
      "type": "function"
    },
    {
      "constant": true,
      "inputs": [
        {
          "name": "_who",
          "type": "address"
        },
        {
          "name": "_index",
          "type": "uint256"
        }
      ],
      "name": "newMessage",
      "outputs": [
        {
          "name": "",
          "type": "bool"
        }
      ],
      "payable": false,
      "stateMutability": "view",
      "type": "function"
    },
    {
      "constant": true,
      "inputs": [
        {
          "name": "_who",
          "type": "address"
        }
      ],
      "name": "getPublicKey",
      "outputs": [
        {
          "name": "_key",
          "type": "string"
        },
        {
          "name": "_key_type",
          "type": "string"
        }
      ],
      "payable": false,
      "stateMutability": "view",
      "type": "function"
    },
    {
      "constant": false,
      "inputs": [
        {
          "name": "_key",
          "type": "string"
        },
        {
          "name": "_type",
          "type": "string"
        }
      ],
      "name": "setPublicKey",
      "outputs": [],
      "payable": false,
      "stateMutability": "nonpayable",
      "type": "function"
    }
  ],
  "bytecode": "0x60606040526220f580600355341561001657600080fd5b61160c806100256000396000f3006060604052600436106100af576000357c0100000000000000000000000000000000000000000000000000000000900463ffffffff1680631b6e23ea146100b457806342ac87cf146101015780634d15a9bb146101a15780634e6bd1c0146101fb578063670d14b2146102f0578063857cdbb814610448578063c45d9bea14610566578063de6f24bb14610678578063e0c01bfe146106f4578063edc8f0d8146107e0578063f1703b911461082d575b600080fd5b34156100bf57600080fd5b6100eb600480803573ffffffffffffffffffffffffffffffffffffffff16906020019091905050610856565b6040518082815260200191505060405180910390f35b341561010c57600080fd5b61019f600480803590602001908201803590602001908080601f0160208091040260200160405190810160405280939291908181526020018383808284378201915050505050509190803590602001908201803590602001908080601f0160208091040260200160405190810160405280939291908181526020018383808284378201915050505050509190505061086e565b005b34156101ac57600080fd5b6101e1600480803573ffffffffffffffffffffffffffffffffffffffff16906020019091908035906020019091905050610a40565b604051808215151515815260200191505060405180910390f35b341561020657600080fd5b61023b600480803573ffffffffffffffffffffffffffffffffffffffff16906020019091908035906020019091905050610aa4565b604051808473ffffffffffffffffffffffffffffffffffffffff1673ffffffffffffffffffffffffffffffffffffffff16815260200180602001838152602001828103825284818151815260200191508051906020019080838360005b838110156102b3578082015181840152602081019050610298565b50505050905090810190601f1680156102e05780820380516001836020036101000a031916815260200191505b5094505050505060405180910390f35b34156102fb57600080fd5b610327600480803573ffffffffffffffffffffffffffffffffffffffff16906020019091905050610c7d565b6040518080602001806020018381038352858181546001816001161561010002031660029004815260200191508054600181600116156101000203166002900480156103b45780601f10610389576101008083540402835291602001916103b4565b820191906000526020600020905b81548152906001019060200180831161039757829003601f168201915b50508381038252848181546001816001161561010002031660029004815260200191508054600181600116156101000203166002900480156104375780601f1061040c57610100808354040283529160200191610437565b820191906000526020600020905b81548152906001019060200180831161041a57829003601f168201915b505094505050505060405180910390f35b341561045357600080fd5b61047f600480803573ffffffffffffffffffffffffffffffffffffffff16906020019091905050610c9f565b604051808060200180602001838103835285818151815260200191508051906020019080838360005b838110156104c35780820151818401526020810190506104a8565b50505050905090810190601f1680156104f05780820380516001836020036101000a031916815260200191505b50838103825284818151815260200191508051906020019080838360005b8381101561052957808201518184015260208101905061050e565b50505050905090810190601f1680156105565780820380516001836020036101000a031916815260200191505b5094505050505060405180910390f35b341561057157600080fd5b6105a6600480803573ffffffffffffffffffffffffffffffffffffffff16906020019091908035906020019091905050610e74565b604051808473ffffffffffffffffffffffffffffffffffffffff1673ffffffffffffffffffffffffffffffffffffffff168152602001806020018381526020018281038252848181546001816001161561010002031660029004815260200191508054600181600116156101000203166002900480156106675780601f1061063c57610100808354040283529160200191610667565b820191906000526020600020905b81548152906001019060200180831161064a57829003601f168201915b505094505050505060405180910390f35b341561068357600080fd5b6106f2600480803573ffffffffffffffffffffffffffffffffffffffff1690602001909190803590602001908201803590602001908080601f01602080910402602001604051908101604052809392919081815260200183838082843782019150505050505091905050610eca565b005b34156106ff57600080fd5b61072b600480803573ffffffffffffffffffffffffffffffffffffffff169060200190919050506111fa565b604051808473ffffffffffffffffffffffffffffffffffffffff1673ffffffffffffffffffffffffffffffffffffffff16815260200180602001838152602001828103825284818151815260200191508051906020019080838360005b838110156107a3578082015181840152602081019050610788565b50505050905090810190601f1680156107d05780820380516001836020036101000a031916815260200191505b5094505050505060405180910390f35b34156107eb57600080fd5b610817600480803573ffffffffffffffffffffffffffffffffffffffff169060200190919050506114d9565b6040518082815260200191505060405180910390f35b341561083857600080fd5b610840611521565b6040518082815260200191505060405180910390f35b60006020528060005260406000206000915090505481565b81600260003373ffffffffffffffffffffffffffffffffffffffff1673ffffffffffffffffffffffffffffffffffffffff16815260200190815260200160002060000190805190602001906108c4929190611527565b5080600260003373ffffffffffffffffffffffffffffffffffffffff1673ffffffffffffffffffffffffffffffffffffffff168152602001908152602001600020600101908051906020019061091b929190611527565b503373ffffffffffffffffffffffffffffffffffffffff167fe963a0dc3358a0b8e4c9c301f3003bfbd501c8b1ca3497838a39b6e7208d4e328383604051808060200180602001838103835285818151815260200191508051906020019080838360005b8381101561099a57808201518184015260208101905061097f565b50505050905090810190601f1680156109c75780820380516001836020036101000a031916815260200191505b50838103825284818151815260200191508051906020019080838360005b83811015610a005780820151818401526020810190506109e5565b50505050905090810190601f168015610a2d5780820380516001836020036101000a031916815260200191505b5094505050505060405180910390a25050565b600042600354600160008673ffffffffffffffffffffffffffffffffffffffff1673ffffffffffffffffffffffffffffffffffffffff1681526020019081526020016000206000858152602001908152602001600020600201540111905092915050565b6000610aae6115a7565b6000600160008673ffffffffffffffffffffffffffffffffffffffff1673ffffffffffffffffffffffffffffffffffffffff168152602001908152602001600020600060018603815260200190815260200160002060000160009054906101000a900473ffffffffffffffffffffffffffffffffffffffff16600160008773ffffffffffffffffffffffffffffffffffffffff1673ffffffffffffffffffffffffffffffffffffffff1681526020019081526020016000206000600187038152602001908152602001600020600101600160008873ffffffffffffffffffffffffffffffffffffffff1673ffffffffffffffffffffffffffffffffffffffff168152602001908152602001600020600060018803815260200190815260200160002060020154818054600181600116156101000203166002900480601f016020809104026020016040519081016040528092919081815260200182805460018160011615610100020316600290048015610c695780601f10610c3e57610100808354040283529160200191610c69565b820191906000526020600020905b815481529060010190602001808311610c4c57829003601f168201915b505050505091509250925092509250925092565b6002602052806000526040600020600091509050806000019080600101905082565b610ca76115a7565b610caf6115a7565b600260008473ffffffffffffffffffffffffffffffffffffffff1673ffffffffffffffffffffffffffffffffffffffff168152602001908152602001600020600001600260008573ffffffffffffffffffffffffffffffffffffffff1673ffffffffffffffffffffffffffffffffffffffff168152602001908152602001600020600101818054600181600116156101000203166002900480601f016020809104026020016040519081016040528092919081815260200182805460018160011615610100020316600290048015610dc85780601f10610d9d57610100808354040283529160200191610dc8565b820191906000526020600020905b815481529060010190602001808311610dab57829003601f168201915b50505050509150808054600181600116156101000203166002900480601f016020809104026020016040519081016040528092919081815260200182805460018160011615610100020316600290048015610e645780601f10610e3957610100808354040283529160200191610e64565b820191906000526020600020905b815481529060010190602001808311610e4757829003601f168201915b5050505050905091509150915091565b6001602052816000526040600020602052806000526040600020600091509150508060000160009054906101000a900473ffffffffffffffffffffffffffffffffffffffff169080600101908060020154905083565b33600160008473ffffffffffffffffffffffffffffffffffffffff1673ffffffffffffffffffffffffffffffffffffffff16815260200190815260200160002060008060008673ffffffffffffffffffffffffffffffffffffffff1673ffffffffffffffffffffffffffffffffffffffff16815260200190815260200160002054815260200190815260200160002060000160006101000a81548173ffffffffffffffffffffffffffffffffffffffff021916908373ffffffffffffffffffffffffffffffffffffffff16021790555080600160008473ffffffffffffffffffffffffffffffffffffffff1673ffffffffffffffffffffffffffffffffffffffff16815260200190815260200160002060008060008673ffffffffffffffffffffffffffffffffffffffff1673ffffffffffffffffffffffffffffffffffffffff168152602001908152602001600020548152602001908152602001600020600101908051906020019061103f929190611527565b5042600160008473ffffffffffffffffffffffffffffffffffffffff1673ffffffffffffffffffffffffffffffffffffffff16815260200190815260200160002060008060008673ffffffffffffffffffffffffffffffffffffffff1673ffffffffffffffffffffffffffffffffffffffff168152602001908152602001600020548152602001908152602001600020600201819055506000808373ffffffffffffffffffffffffffffffffffffffff1673ffffffffffffffffffffffffffffffffffffffff168152602001908152602001600020600081548092919060010191905055508173ffffffffffffffffffffffffffffffffffffffff163373ffffffffffffffffffffffffffffffffffffffff167fdd99aef5e4fdfad84059320be40f5dc0f015dc4025f56bd4010608c6743bc22e42846040518083815260200180602001828103825283818151815260200191508051906020019080838360005b838110156111bb5780820151818401526020810190506111a0565b50505050905090810190601f1680156111e85780820380516001836020036101000a031916815260200191505b50935050505060405180910390a35050565b60006112046115a7565b6000806000808673ffffffffffffffffffffffffffffffffffffffff1673ffffffffffffffffffffffffffffffffffffffff1681526020019081526020016000205411151561125257600080fd5b600160008573ffffffffffffffffffffffffffffffffffffffff1673ffffffffffffffffffffffffffffffffffffffff168152602001908152602001600020600060016000808873ffffffffffffffffffffffffffffffffffffffff1673ffffffffffffffffffffffffffffffffffffffff1681526020019081526020016000205403815260200190815260200160002060000160009054906101000a900473ffffffffffffffffffffffffffffffffffffffff16600160008673ffffffffffffffffffffffffffffffffffffffff1673ffffffffffffffffffffffffffffffffffffffff168152602001908152602001600020600060016000808973ffffffffffffffffffffffffffffffffffffffff1673ffffffffffffffffffffffffffffffffffffffff16815260200190815260200160002054038152602001908152602001600020600101600160008773ffffffffffffffffffffffffffffffffffffffff1673ffffffffffffffffffffffffffffffffffffffff168152602001908152602001600020600060016000808a73ffffffffffffffffffffffffffffffffffffffff1673ffffffffffffffffffffffffffffffffffffffff1681526020019081526020016000205403815260200190815260200160002060020154818054600181600116156101000203166002900480601f0160208091040260200160405190810160405280929190818152602001828054600181600116156101000203166002900480156114c55780601f1061149a576101008083540402835291602001916114c5565b820191906000526020600020905b8154815290600101906020018083116114a857829003601f168201915b505050505091509250925092509193909250565b60008060008373ffffffffffffffffffffffffffffffffffffffff1673ffffffffffffffffffffffffffffffffffffffff168152602001908152602001600020549050919050565b60035481565b828054600181600116156101000203166002900490600052602060002090601f016020900481019282601f1061156857805160ff1916838001178555611596565b82800160010185558215611596579182015b8281111561159557825182559160200191906001019061157a565b5b5090506115a391906115bb565b5090565b602060405190810160405280600081525090565b6115dd91905b808211156115d95760008160009055506001016115c1565b5090565b905600a165627a7a72305820bf6299526a891c23f401124683da7d81b14e3e9f26c69cc4b1b8f9a85ce460c70029",
  "source": "pragma solidity ^0.4.15;\n\n/** Ethereum Classic messaging system reference implementation\n *\n *  Originally designed by Dexaran\n */\n\ncontract SmartCurrency {\n    \n    event Message(address indexed _sender, address indexed _receiver, uint256 _time, string message);\n    event PublicKeyUpdated(address indexed _sender, string _key, string _keytype);\n    \n    struct message\n    {\n        address from;\n        string  text;\n        uint256 time;\n    }\n    \n    struct public_key_struct\n    {\n        string key;\n        string key_type;\n    }\n    \n    mapping (address => uint256) public last_msg_index;\n    mapping (address => mapping (uint256 => message)) public messages;\n    mapping (address => public_key_struct) public keys;\n    \n    uint256 public message_staling_period = 25 days;\n    \n    function sendMessage(address _to, string _text)\n    {\n        messages[_to][last_msg_index[_to]].from = msg.sender;\n        messages[_to][last_msg_index[_to]].text = _text;\n        messages[_to][last_msg_index[_to]].time = now;\n        last_msg_index[_to]++;\n        Message(msg.sender, _to, now, _text);\n    }\n    \n    function lastIndex(address _owner) constant returns (uint256)\n    {\n        return last_msg_index[_owner];\n    }\n    \n    function getLastMessage(address _who) constant returns (address, string, uint256)\n    {\n        require(last_msg_index[_who] > 0);\n        return (messages[_who][last_msg_index[_who] - 1].from, messages[_who][last_msg_index[_who] - 1].text, messages[_who][last_msg_index[_who] - 1].time);\n    }\n    \n    function getMessageByIndex(address _who, uint256 _index) constant returns (address, string, uint256)\n    \n    {\n        \n        return (messages[_who][_index - 1].from, messages[_who][_index - 1].text, messages[_who][_index - 1].time);\n    }\n    \n    \n    \n    function newMessage(address _who, uint256 _index) constant returns (bool)\n    {\n        return messages[_who][_index].time + message_staling_period > now;\n    }\n    \n    function getPublicKey(address _who) constant returns (string _key, string _key_type)\n    {\n        return (keys[_who].key, keys[_who].key_type);\n    }\n    \n    function setPublicKey(string _key, string _type)\n    {\n        keys[msg.sender].key = _key;\n        keys[msg.sender].key_type = _type;\n        PublicKeyUpdated(msg.sender, _key, _type);\n    }\n}",
  "sourcePath": "/home/rpqb-desk-004/Aidantfull/contracts/SmartCurrency.sol",
  "compiler": {
    "name": "solc",
    "version": "0.4.19+commit.c4cbbb05.Emscripten.clang"
  },
  "schemaVersion": "2.0.0",
  "updatedAt": "2018-05-18T05:02:30.125Z"
}