{
  "contractName": "SmartCurrency",
  "abi": [
    {
      "constant": false,
      "inputs": [
        {
          "name": "index",
          "type": "uint256"
        }
      ],
      "name": "getTransaction",
      "outputs": [
        {
          "name": "value",
          "type": "string"
        }
      ],
      "payable": false,
      "type": "function",
      "stateMutability": "nonpayable"
    },
    {
      "constant": false,
      "inputs": [
        {
          "name": "receiver",
          "type": "address"
        },
        {
          "name": "updateString",
          "type": "string"
        },
        {
          "name": "amount",
          "type": "uint256"
        }
      ],
      "name": "SendCoins",
      "outputs": [
        {
          "name": "sufficient",
          "type": "bool"
        }
      ],
      "payable": false,
      "type": "function",
      "stateMutability": "nonpayable"
    },
    {
      "constant": false,
      "inputs": [
        {
          "name": "updateString",
          "type": "string"
        }
      ],
      "name": "updateTransaction",
      "outputs": [
        {
          "name": "updated",
          "type": "bool"
        }
      ],
      "payable": false,
      "type": "function",
      "stateMutability": "nonpayable"
    },
    {
      "constant": false,
      "inputs": [
        {
          "name": "addr",
          "type": "address"
        }
      ],
      "name": "getBalance",
      "outputs": [
        {
          "name": "",
          "type": "uint256"
        }
      ],
      "payable": false,
      "type": "function",
      "stateMutability": "nonpayable"
    },
    {
      "inputs": [],
      "payable": false,
      "type": "constructor",
      "stateMutability": "nonpayable"
    },
    {
      "anonymous": false,
      "inputs": [
        {
          "indexed": true,
          "name": "_from",
          "type": "address"
        },
        {
          "indexed": true,
          "name": "_to",
          "type": "address"
        },
        {
          "indexed": false,
          "name": "_value",
          "type": "uint256"
        },
        {
          "indexed": false,
          "name": "_updateString",
          "type": "string"
        }
      ],
      "name": "Transfer",
      "type": "event"
    }
  ],
  "bytecode": "0x6060604052341561000f57600080fd5b620186a06000803373ffffffffffffffffffffffffffffffffffffffff1673ffffffffffffffffffffffffffffffffffffffff168152602001908152602001600020819055506107fb806100646000396000f300606060405260043610610062576000357c0100000000000000000000000000000000000000000000000000000000900463ffffffff16806333ea3dc8146100675780636a45090014610103578063f31125cf146101a0578063f8b2cb4f14610215575b600080fd5b341561007257600080fd5b6100886004808035906020019091905050610262565b6040518080602001828103825283818151815260200191508051906020019080838360005b838110156100c85780820151818401526020810190506100ad565b50505050905090810190601f1680156100f55780820380516001836020036101000a031916815260200191505b509250505060405180910390f35b341561010e57600080fd5b610186600480803573ffffffffffffffffffffffffffffffffffffffff1690602001909190803590602001908201803590602001908080601f01602080910402602001604051908101604052809392919081815260200183838082843782019150505050505091908035906020019091905050610364565b604051808215151515815260200191505060405180910390f35b34156101ab57600080fd5b6101fb600480803590602001908201803590602001908080601f016020809104026020016040519081016040528093929190818152602001838380828437820191505050505050919050506105a7565b604051808215151515815260200191505060405180910390f35b341561022057600080fd5b61024c600480803573ffffffffffffffffffffffffffffffffffffffff1690602001909190505061062e565b6040518082815260200191505060405180910390f35b61026a610676565b600160003373ffffffffffffffffffffffffffffffffffffffff1673ffffffffffffffffffffffffffffffffffffffff168152602001908152602001600020600001828154811015156102b957fe5b90600052602060002090018054600181600116156101000203166002900480601f0160208091040260200160405190810160405280929190818152602001828054600181600116156101000203166002900480156103585780601f1061032d57610100808354040283529160200191610358565b820191906000526020600020905b81548152906001019060200180831161033b57829003601f168201915b50505050509050919050565b6000816000803373ffffffffffffffffffffffffffffffffffffffff1673ffffffffffffffffffffffffffffffffffffffff1681526020019081526020016000205410156103b557600090506105a0565b816000803373ffffffffffffffffffffffffffffffffffffffff1673ffffffffffffffffffffffffffffffffffffffff16815260200190815260200160002060008282540392505081905550816000808673ffffffffffffffffffffffffffffffffffffffff1673ffffffffffffffffffffffffffffffffffffffff16815260200190815260200160002060008282540192505081905550600160003373ffffffffffffffffffffffffffffffffffffffff1673ffffffffffffffffffffffffffffffffffffffff16815260200190815260200160002060000180548060010182816104a1919061068a565b9160005260206000209001600085909190915090805190602001906104c79291906106b6565b50508373ffffffffffffffffffffffffffffffffffffffff163373ffffffffffffffffffffffffffffffffffffffff167fcd6e659e4c2e75c3bfe47fecaccf39aeb368116a0ee52afb532e07f6cba6c0d184866040518083815260200180602001828103825283818151815260200191508051906020019080838360005b83811015610560578082015181840152602081019050610545565b50505050905090810190601f16801561058d5780820380516001836020036101000a031916815260200191505b50935050505060405180910390a3600190505b9392505050565b6000600160003373ffffffffffffffffffffffffffffffffffffffff1673ffffffffffffffffffffffffffffffffffffffff16815260200190815260200160002060000180548060010182816105fd919061068a565b9160005260206000209001600084909190915090805190602001906106239291906106b6565b505060019050919050565b60008060008373ffffffffffffffffffffffffffffffffffffffff1673ffffffffffffffffffffffffffffffffffffffff168152602001908152602001600020549050919050565b602060405190810160405280600081525090565b8154818355818115116106b1578183600052602060002091820191016106b09190610736565b5b505050565b828054600181600116156101000203166002900490600052602060002090601f016020900481019282601f106106f757805160ff1916838001178555610725565b82800160010185558215610725579182015b82811115610724578251825591602001919060010190610709565b5b5090506107329190610762565b5090565b61075f91905b8082111561075b57600081816107529190610787565b5060010161073c565b5090565b90565b61078491905b80821115610780576000816000905550600101610768565b5090565b90565b50805460018160011615610100020316600290046000825580601f106107ad57506107cc565b601f0160209004906000526020600020908101906107cb9190610762565b5b505600a165627a7a723058209d6c27cb66ecd415c39180932acee6f4d2df2daf7b03c6a667b1afbd69fe34530029",
  "source": "pragma solidity ^0.4.4;\n\n   \n   contract SmartCurrency {\n    mapping (address => uint256) balances;\n    mapping (address => Usr ) Users;\n   \n    //users will be stored in address array.\n   struct Usr {\n    \n    string [] details;\n    \n    }\n\n   event Transfer(address indexed _from, address indexed _to, uint256 _value , string _updateString); //transfer amount from to receiver\n    \n    function SmartCurrency() {\n    balances[msg.sender]= 100000;\n      \n   }\n\n   function SendCoins(address receiver,string updateString, uint amount)returns(bool sufficient) {\n        if (balances[msg.sender] < amount) return false; // checks balance is not 0.\n        balances[msg.sender] -= amount; // deducts  balance from Sender.\n        balances[receiver] += amount; // increments  balance of  receiver.\n        Users[msg.sender].details.push(updateString);\n        Transfer(msg.sender, receiver, amount , updateString); // event transfer gets called.\n        return true;\n    }\n    \n   function getBalance(address addr) returns(uint ) {\n        return balances[addr]; // returns balance of reciever.\n        \n   }\n    function updateTransaction (string updateString) returns (bool updated) {\n         Users[msg.sender].details.push(updateString);\n         return true;\n    }\n    \n    function getTransaction(uint index) returns(string value ) {\n     return Users[msg.sender].details[index];\n     }\n     \n}",
  "sourcePath": "/home/manoj/chequecc/contracts/SmartCurrency.sol",
  "compiler": {
    "name": "solc",
    "version": "0.4.18+commit.9cf6e910.Emscripten.clang"
  },
  "schemaVersion": "1.0.1",
  "updatedAt": "2017-11-22T05:00:53.991Z"
}