{
  "contractName": "SmartCurrency",
  "abi": [
    {
      "constant": true,
      "inputs": [
        {
          "name": "",
          "type": "bytes32"
        }
      ],
      "name": "documentStructs",
      "outputs": [
        {
          "name": "url",
          "type": "string"
        },
        {
          "name": "ack",
          "type": "string"
        }
      ],
      "payable": false,
      "stateMutability": "view",
      "type": "function"
    },
    {
      "constant": false,
      "inputs": [
        {
          "name": "Key",
          "type": "bytes32"
        },
        {
          "name": "url",
          "type": "string"
        }
      ],
      "name": "StoreDocument",
      "outputs": [
        {
          "name": "success",
          "type": "bool"
        }
      ],
      "payable": false,
      "stateMutability": "nonpayable",
      "type": "function"
    },
    {
      "constant": false,
      "inputs": [
        {
          "name": "Key",
          "type": "bytes32"
        },
        {
          "name": "ack",
          "type": "string"
        }
      ],
      "name": "StoreAck",
      "outputs": [
        {
          "name": "success",
          "type": "bool"
        }
      ],
      "payable": false,
      "stateMutability": "nonpayable",
      "type": "function"
    }
  ],
  "bytecode": "0x608060405234801561001057600080fd5b50610531806100206000396000f300608060405260043610610057576000357c0100000000000000000000000000000000000000000000000000000000900463ffffffff16806372061b911461005c578063e11c3c1014610172578063f14bf89e14610201575b600080fd5b34801561006857600080fd5b5061008b6004803603810190808035600019169060200190929190505050610290565b604051808060200180602001838103835285818151815260200191508051906020019080838360005b838110156100cf5780820151818401526020810190506100b4565b50505050905090810190601f1680156100fc5780820380516001836020036101000a031916815260200191505b50838103825284818151815260200191508051906020019080838360005b8381101561013557808201518184015260208101905061011a565b50505050905090810190601f1680156101625780820380516001836020036101000a031916815260200191505b5094505050505060405180910390f35b34801561017e57600080fd5b506101e76004803603810190808035600019169060200190929190803590602001908201803590602001908080601f01602080910402602001604051908101604052809392919081815260200183838082843782019150505050505091929192905050506103e4565b604051808215151515815260200191505060405180910390f35b34801561020d57600080fd5b506102766004803603810190808035600019169060200190929190803590602001908201803590602001908080601f0160208091040260200160405190810160405280939291908181526020018383808284378201915050505050509192919290505050610422565b604051808215151515815260200191505060405180910390f35b6000602052806000526040600020600091509050806000018054600181600116156101000203166002900480601f01602080910402602001604051908101604052809291908181526020018280546001816001161561010002031660029004801561033c5780601f106103115761010080835404028352916020019161033c565b820191906000526020600020905b81548152906001019060200180831161031f57829003601f168201915b505050505090806001018054600181600116156101000203166002900480601f0160208091040260200160405190810160405280929190818152602001828054600181600116156101000203166002900480156103da5780601f106103af576101008083540402835291602001916103da565b820191906000526020600020905b8154815290600101906020018083116103bd57829003601f168201915b5050505050905082565b60008160008085600019166000191681526020019081526020016000206001019080519060200190610417929190610460565b506001905092915050565b60008160008085600019166000191681526020019081526020016000206000019080519060200190610455929190610460565b506001905092915050565b828054600181600116156101000203166002900490600052602060002090601f016020900481019282601f106104a157805160ff19168380011785556104cf565b828001600101855582156104cf579182015b828111156104ce5782518255916020019190600101906104b3565b5b5090506104dc91906104e0565b5090565b61050291905b808211156104fe5760008160009055506001016104e6565b5090565b905600a165627a7a723058201efd24703ddd1edd367abaa4fdb5fa0dbc76bb472621ef132b2242c00416dc340029",
  "source": "pragma solidity ^0.4.6;\ncontract SmartCurrency {\n\n  \n\n\n // This is a Type\n struct DocumentStruct{\n   // Not possible to pass strings between contracts at this time\n   string url;\n   string ack;\n  \n\n  \n }\n   \n\n // This is a namespace where we will store docs of Type DocumentStruct\n  mapping(bytes32 => DocumentStruct) public documentStructs;\n\n\n // Set values in storage\n function StoreDocument( bytes32 Key,  string url) returns (bool success) {\n  documentStructs[Key].url  = url;\n \n \n \n\n  return true;\n }\n  function StoreAck( bytes32 Key,  string ack) returns (bool success) {\n  documentStructs[Key].ack  = ack;\n   return true;\n}\n}",
  "sourcePath": "/home/rpqb-desk-003/chequeclearance/contracts/SmartCurrency.sol",
  "compiler": {
    "name": "solc",
    "version": "0.4.23+commit.124ca40d.Emscripten.clang"
  },
  "schemaVersion": "2.0.0",
  "updatedAt": "2018-05-02T09:41:57.443Z"
}