{
  "contractName": "SmartCurrency",
  "abi": [
    {
      "constant": true,
      "inputs": [
        {
          "name": "",
          "type": "bytes32"
        }
      ],
      "name": "documentStructs",
      "outputs": [
        {
          "name": "url",
          "type": "string"
        },
        {
          "name": "ack",
          "type": "string"
        }
      ],
      "payable": false,
      "stateMutability": "view",
      "type": "function"
    },
    {
      "constant": false,
      "inputs": [
        {
          "name": "Key",
          "type": "bytes32"
        },
        {
          "name": "url",
          "type": "string"
        }
      ],
      "name": "StoreDocument",
      "outputs": [
        {
          "name": "success",
          "type": "bool"
        }
      ],
      "payable": false,
      "stateMutability": "nonpayable",
      "type": "function"
    },
    {
      "constant": false,
      "inputs": [
        {
          "name": "Key",
          "type": "bytes32"
        },
        {
          "name": "ack",
          "type": "string"
        }
      ],
      "name": "StoreAck",
      "outputs": [
        {
          "name": "success",
          "type": "bool"
        }
      ],
      "payable": false,
      "stateMutability": "nonpayable",
      "type": "function"
    }
  ],
  "bytecode": "0x6060604052341561000f57600080fd5b6104158061001e6000396000f300606060405260043610610057576000357c0100000000000000000000000000000000000000000000000000000000900463ffffffff16806372061b911461005c578063e11c3c10146101a2578063f14bf89e14610224575b600080fd5b341561006757600080fd5b6100816004808035600019169060200190919050506102a6565b60405180806020018060200183810383528581815460018160011615610100020316600290048152602001915080546001816001161561010002031660029004801561010e5780601f106100e35761010080835404028352916020019161010e565b820191906000526020600020905b8154815290600101906020018083116100f157829003601f168201915b50508381038252848181546001816001161561010002031660029004815260200191508054600181600116156101000203166002900480156101915780601f1061016657610100808354040283529160200191610191565b820191906000526020600020905b81548152906001019060200180831161017457829003601f168201915b505094505050505060405180910390f35b34156101ad57600080fd5b61020a60048080356000191690602001909190803590602001908201803590602001908080601f016020809104026020016040519081016040528093929190818152602001838380828437820191505050505050919050506102c8565b604051808215151515815260200191505060405180910390f35b341561022f57600080fd5b61028c60048080356000191690602001909190803590602001908201803590602001908080601f01602080910402602001604051908101604052809392919081815260200183838082843782019150505050505091905050610306565b604051808215151515815260200191505060405180910390f35b6000602052806000526040600020600091509050806000019080600101905082565b600081600080856000191660001916815260200190815260200160002060010190805190602001906102fb929190610344565b506001905092915050565b60008160008085600019166000191681526020019081526020016000206000019080519060200190610339929190610344565b506001905092915050565b828054600181600116156101000203166002900490600052602060002090601f016020900481019282601f1061038557805160ff19168380011785556103b3565b828001600101855582156103b3579182015b828111156103b2578251825591602001919060010190610397565b5b5090506103c091906103c4565b5090565b6103e691905b808211156103e25760008160009055506001016103ca565b5090565b905600a165627a7a72305820754bdd9c8ec28703c43caa1ccbf597959c59f02531d714a98a497d5ccdc9a6310029",
  "source": "pragma solidity ^0.4.6;\ncontract SmartCurrency {\n\n  \n\n\n // This is a Type\n struct DocumentStruct{\n   // Not possible to pass strings between contracts at this time\n   string url;\n   string ack;\n  \n\n  \n }\n   \n\n // This is a namespace where we will store docs of Type DocumentStruct\n  mapping(bytes32 => DocumentStruct) public documentStructs;\n\n\n // Set values in storage\n function StoreDocument( bytes32 Key,  string url) returns (bool success) {\n  documentStructs[Key].url  = url;\n \n \n \n\n  return true;\n }\n  function StoreAck( bytes32 Key,  string ack) returns (bool success) {\n  documentStructs[Key].ack  = ack;\n   return true;\n}\n}",
  "sourcePath": "/home/rpqb-desk-003/chequeclearance/contracts/SmartCurrency.sol",
  "compiler": {
    "name": "solc",
    "version": "0.4.19+commit.c4cbbb05.Emscripten.clang"
  },
  "schemaVersion": "2.0.0",
  "updatedAt": "2018-04-24T04:38:17.667Z"
}